{
  "contractName": "HortensiaNFT",
  "abi": [
    {
      "inputs": [],
      "stateMutability": "nonpayable",
      "type": "constructor"
    },
    {
      "anonymous": false,
      "inputs": [
        {
          "indexed": true,
          "internalType": "address",
          "name": "owner",
          "type": "address"
        },
        {
          "indexed": true,
          "internalType": "address",
          "name": "approved",
          "type": "address"
        },
        {
          "indexed": true,
          "internalType": "uint256",
          "name": "tokenId",
          "type": "uint256"
        }
      ],
      "name": "Approval",
      "type": "event"
    },
    {
      "anonymous": false,
      "inputs": [
        {
          "indexed": true,
          "internalType": "address",
          "name": "owner",
          "type": "address"
        },
        {
          "indexed": true,
          "internalType": "address",
          "name": "operator",
          "type": "address"
        },
        {
          "indexed": false,
          "internalType": "bool",
          "name": "approved",
          "type": "bool"
        }
      ],
      "name": "ApprovalForAll",
      "type": "event"
    },
    {
      "anonymous": false,
      "inputs": [
        {
          "indexed": true,
          "internalType": "address",
          "name": "previousOwner",
          "type": "address"
        },
        {
          "indexed": true,
          "internalType": "address",
          "name": "newOwner",
          "type": "address"
        }
      ],
      "name": "OwnershipTransferred",
      "type": "event"
    },
    {
      "anonymous": false,
      "inputs": [
        {
          "indexed": true,
          "internalType": "address",
          "name": "from",
          "type": "address"
        },
        {
          "indexed": true,
          "internalType": "address",
          "name": "to",
          "type": "address"
        },
        {
          "indexed": true,
          "internalType": "uint256",
          "name": "tokenId",
          "type": "uint256"
        }
      ],
      "name": "Transfer",
      "type": "event"
    },
    {
      "inputs": [
        {
          "internalType": "address",
          "name": "to",
          "type": "address"
        },
        {
          "internalType": "uint256",
          "name": "tokenId",
          "type": "uint256"
        }
      ],
      "name": "approve",
      "outputs": [],
      "stateMutability": "nonpayable",
      "type": "function"
    },
    {
      "inputs": [
        {
          "internalType": "address",
          "name": "owner",
          "type": "address"
        }
      ],
      "name": "balanceOf",
      "outputs": [
        {
          "internalType": "uint256",
          "name": "",
          "type": "uint256"
        }
      ],
      "stateMutability": "view",
      "type": "function"
    },
    {
      "inputs": [
        {
          "internalType": "uint256",
          "name": "tokenId",
          "type": "uint256"
        }
      ],
      "name": "getApproved",
      "outputs": [
        {
          "internalType": "address",
          "name": "",
          "type": "address"
        }
      ],
      "stateMutability": "view",
      "type": "function"
    },
    {
      "inputs": [
        {
          "internalType": "uint256",
          "name": "",
          "type": "uint256"
        }
      ],
      "name": "hortensias",
      "outputs": [
        {
          "internalType": "string",
          "name": "",
          "type": "string"
        }
      ],
      "stateMutability": "view",
      "type": "function"
    },
    {
      "inputs": [
        {
          "internalType": "address",
          "name": "owner",
          "type": "address"
        },
        {
          "internalType": "address",
          "name": "operator",
          "type": "address"
        }
      ],
      "name": "isApprovedForAll",
      "outputs": [
        {
          "internalType": "bool",
          "name": "",
          "type": "bool"
        }
      ],
      "stateMutability": "view",
      "type": "function"
    },
    {
      "inputs": [],
      "name": "name",
      "outputs": [
        {
          "internalType": "string",
          "name": "",
          "type": "string"
        }
      ],
      "stateMutability": "view",
      "type": "function"
    },
    {
      "inputs": [],
      "name": "owner",
      "outputs": [
        {
          "internalType": "address",
          "name": "",
          "type": "address"
        }
      ],
      "stateMutability": "view",
      "type": "function"
    },
    {
      "inputs": [
        {
          "internalType": "uint256",
          "name": "tokenId",
          "type": "uint256"
        }
      ],
      "name": "ownerOf",
      "outputs": [
        {
          "internalType": "address",
          "name": "",
          "type": "address"
        }
      ],
      "stateMutability": "view",
      "type": "function"
    },
    {
      "inputs": [],
      "name": "renounceOwnership",
      "outputs": [],
      "stateMutability": "nonpayable",
      "type": "function"
    },
    {
      "inputs": [
        {
          "internalType": "address",
          "name": "from",
          "type": "address"
        },
        {
          "internalType": "address",
          "name": "to",
          "type": "address"
        },
        {
          "internalType": "uint256",
          "name": "tokenId",
          "type": "uint256"
        }
      ],
      "name": "safeTransferFrom",
      "outputs": [],
      "stateMutability": "nonpayable",
      "type": "function"
    },
    {
      "inputs": [
        {
          "internalType": "address",
          "name": "from",
          "type": "address"
        },
        {
          "internalType": "address",
          "name": "to",
          "type": "address"
        },
        {
          "internalType": "uint256",
          "name": "tokenId",
          "type": "uint256"
        },
        {
          "internalType": "bytes",
          "name": "_data",
          "type": "bytes"
        }
      ],
      "name": "safeTransferFrom",
      "outputs": [],
      "stateMutability": "nonpayable",
      "type": "function"
    },
    {
      "inputs": [
        {
          "internalType": "address",
          "name": "operator",
          "type": "address"
        },
        {
          "internalType": "bool",
          "name": "approved",
          "type": "bool"
        }
      ],
      "name": "setApprovalForAll",
      "outputs": [],
      "stateMutability": "nonpayable",
      "type": "function"
    },
    {
      "inputs": [],
      "name": "symbol",
      "outputs": [
        {
          "internalType": "string",
          "name": "",
          "type": "string"
        }
      ],
      "stateMutability": "view",
      "type": "function"
    },
    {
      "inputs": [
        {
          "internalType": "uint256",
          "name": "index",
          "type": "uint256"
        }
      ],
      "name": "tokenByIndex",
      "outputs": [
        {
          "internalType": "uint256",
          "name": "",
          "type": "uint256"
        }
      ],
      "stateMutability": "view",
      "type": "function"
    },
    {
      "inputs": [
        {
          "internalType": "address",
          "name": "owner",
          "type": "address"
        },
        {
          "internalType": "uint256",
          "name": "index",
          "type": "uint256"
        }
      ],
      "name": "tokenOfOwnerByIndex",
      "outputs": [
        {
          "internalType": "uint256",
          "name": "",
          "type": "uint256"
        }
      ],
      "stateMutability": "view",
      "type": "function"
    },
    {
      "inputs": [],
      "name": "totalSupply",
      "outputs": [
        {
          "internalType": "uint256",
          "name": "",
          "type": "uint256"
        }
      ],
      "stateMutability": "view",
      "type": "function"
    },
    {
      "inputs": [
        {
          "internalType": "address",
          "name": "from",
          "type": "address"
        },
        {
          "internalType": "address",
          "name": "to",
          "type": "address"
        },
        {
          "internalType": "uint256",
          "name": "tokenId",
          "type": "uint256"
        }
      ],
      "name": "transferFrom",
      "outputs": [],
      "stateMutability": "nonpayable",
      "type": "function"
    },
    {
      "inputs": [
        {
          "internalType": "address",
          "name": "newOwner",
          "type": "address"
        }
      ],
      "name": "transferOwnership",
      "outputs": [],
      "stateMutability": "nonpayable",
      "type": "function"
    },
    {
      "inputs": [
        {
          "internalType": "address",
          "name": "to",
          "type": "address"
        },
        {
          "internalType": "string",
          "name": "uri",
          "type": "string"
        }
      ],
      "name": "safeMint",
      "outputs": [],
      "stateMutability": "nonpayable",
      "type": "function"
    },
    {
      "inputs": [
        {
          "internalType": "uint256",
          "name": "tokenId",
          "type": "uint256"
        }
      ],
      "name": "tokenURI",
      "outputs": [
        {
          "internalType": "string",
          "name": "",
          "type": "string"
        }
      ],
      "stateMutability": "view",
      "type": "function"
    },
    {
      "inputs": [
        {
          "internalType": "bytes4",
          "name": "interfaceId",
          "type": "bytes4"
        }
      ],
      "name": "supportsInterface",
      "outputs": [
        {
          "internalType": "bool",
          "name": "",
          "type": "bool"
        }
      ],
      "stateMutability": "view",
      "type": "function"
    },
    {
      "inputs": [
        {
          "internalType": "string",
          "name": "uri",
          "type": "string"
        }
      ],
      "name": "isContentOwned",
      "outputs": [
        {
          "internalType": "bool",
          "name": "",
          "type": "bool"
        }
      ],
      "stateMutability": "view",
      "type": "function"
    },
    {
      "inputs": [
        {
          "internalType": "address",
          "name": "_recipient",
          "type": "address"
        },
        {
          "internalType": "string",
          "name": "_metadataURI",
          "type": "string"
        }
      ],
      "name": "paytoMint",
      "outputs": [
        {
          "internalType": "uint256",
          "name": "",
          "type": "uint256"
        }
      ],
      "stateMutability": "payable",
      "type": "function"
    },
    {
      "inputs": [],
      "name": "count",
      "outputs": [
        {
          "internalType": "uint256",
          "name": "",
          "type": "uint256"
        }
      ],
      "stateMutability": "view",
      "type": "function"
    }
  ],
  "bytecode": "0x608060405266b1a2bc2ec50000600c553480156200001c57600080fd5b506040518060400160405280600981526020017f486f7274656e73696100000000000000000000000000000000000000000000008152506040518060400160405280600481526020017f484f5220000000000000000000000000000000000000000000000000000000008152508160009080519060200190620000a1929190620001b1565b508060019080519060200190620000ba929190620001b1565b505050620000dd620000d1620000e360201b60201c565b620000eb60201b60201c565b620002c5565b600033905090565b6000600b60009054906101000a900473ffffffffffffffffffffffffffffffffffffffff16905081600b60006101000a81548173ffffffffffffffffffffffffffffffffffffffff021916908373ffffffffffffffffffffffffffffffffffffffff1602179055508173ffffffffffffffffffffffffffffffffffffffff168173ffffffffffffffffffffffffffffffffffffffff167f8be0079c531659141344cd1fd0a4f28419497f9722a3daafe3b4186f6b6457e060405160405180910390a35050565b828054620001bf9062000290565b90600052602060002090601f016020900481019282620001e357600085556200022f565b82601f10620001fe57805160ff19168380011785556200022f565b828001600101855582156200022f579182015b828111156200022e57825182559160200191906001019062000211565b5b5090506200023e919062000242565b5090565b5b808211156200025d57600081600090555060010162000243565b5090565b7f4e487b7100000000000000000000000000000000000000000000000000000000600052602260045260246000fd5b60006002820490506001821680620002a957607f821691505b602082108103620002bf57620002be62000261565b5b50919050565b613dab80620002d56000396000f3fe60806040526004361061014b5760003560e01c806370a08231116100b6578063b02af3ea1161006f578063b02af3ea146104bd578063b88d4fde146104fa578063c87b56dd14610523578063d204c45e14610560578063e985e9c514610589578063f2fde38b146105c65761014b565b806370a08231146103ad578063715018a6146103ea5780638da5cb5b1461040157806395d89b411461042c5780639f1cabc614610457578063a22cb465146104945761014b565b806323b872dd1161010857806323b872dd146102745780632f745c591461029d57806342842e0e146102da5780634f6ccce7146103035780635c9a7f93146103405780636352211e146103705761014b565b806301ffc9a71461015057806306661abd1461018d57806306fdde03146101b8578063081812fc146101e3578063095ea7b31461022057806318160ddd14610249575b600080fd5b34801561015c57600080fd5b5061017760048036038101906101729190612764565b6105ef565b60405161018491906127ac565b60405180910390f35b34801561019957600080fd5b506101a2610601565b6040516101af91906127e0565b60405180910390f35b3480156101c457600080fd5b506101cd610612565b6040516101da9190612894565b60405180910390f35b3480156101ef57600080fd5b5061020a600480360381019061020591906128e2565b6106a4565b6040516102179190612950565b60405180910390f35b34801561022c57600080fd5b5061024760048036038101906102429190612997565b610729565b005b34801561025557600080fd5b5061025e610840565b60405161026b91906127e0565b60405180910390f35b34801561028057600080fd5b5061029b600480360381019061029691906129d7565b61084d565b005b3480156102a957600080fd5b506102c460048036038101906102bf9190612997565b6108ad565b6040516102d191906127e0565b60405180910390f35b3480156102e657600080fd5b5061030160048036038101906102fc91906129d7565b610952565b005b34801561030f57600080fd5b5061032a600480360381019061032591906128e2565b610972565b60405161033791906127e0565b60405180910390f35b61035a60048036038101906103559190612b5f565b6109e3565b60405161036791906127e0565b60405180910390f35b34801561037c57600080fd5b50610397600480360381019061039291906128e2565b610b03565b6040516103a49190612950565b60405180910390f35b3480156103b957600080fd5b506103d460048036038101906103cf9190612bbb565b610bb4565b6040516103e191906127e0565b60405180910390f35b3480156103f657600080fd5b506103ff610c6b565b005b34801561040d57600080fd5b50610416610cf3565b6040516104239190612950565b60405180910390f35b34801561043857600080fd5b50610441610d1d565b60405161044e9190612894565b60405180910390f35b34801561046357600080fd5b5061047e60048036038101906104799190612be8565b610daf565b60405161048b91906127ac565b60405180910390f35b3480156104a057600080fd5b506104bb60048036038101906104b69190612c5d565b610de4565b005b3480156104c957600080fd5b506104e460048036038101906104df91906128e2565b610dfa565b6040516104f19190612894565b60405180910390f35b34801561050657600080fd5b50610521600480360381019061051c9190612d3e565b610ea6565b005b34801561052f57600080fd5b5061054a600480360381019061054591906128e2565b610f08565b6040516105579190612894565b60405180910390f35b34801561056c57600080fd5b5061058760048036038101906105829190612b5f565b610f1a565b005b34801561059557600080fd5b506105b060048036038101906105ab9190612dc1565b610fc7565b6040516105bd91906127ac565b60405180910390f35b3480156105d257600080fd5b506105ed60048036038101906105e89190612bbb565b61105b565b005b60006105fa82611152565b9050919050565b600061060d600f6111cc565b905090565b60606000805461062190612e30565b80601f016020809104026020016040519081016040528092919081815260200182805461064d90612e30565b801561069a5780601f1061066f5761010080835404028352916020019161069a565b820191906000526020600020905b81548152906001019060200180831161067d57829003601f168201915b5050505050905090565b60006106af826111da565b6106ee576040517f08c379a00000000000000000000000000000000000000000000000000000000081526004016106e590612ed3565b60405180910390fd5b6004600083815260200190815260200160002060009054906101000a900473ffffffffffffffffffffffffffffffffffffffff169050919050565b600061073482610b03565b90508073ffffffffffffffffffffffffffffffffffffffff168373ffffffffffffffffffffffffffffffffffffffff16036107a4576040517f08c379a000000000000000000000000000000000000000000000000000000000815260040161079b90612f65565b60405180910390fd5b8073ffffffffffffffffffffffffffffffffffffffff166107c3611246565b73ffffffffffffffffffffffffffffffffffffffff1614806107f257506107f1816107ec611246565b610fc7565b5b610831576040517f08c379a000000000000000000000000000000000000000000000000000000000815260040161082890612ff7565b60405180910390fd5b61083b838361124e565b505050565b6000600980549050905090565b61085e610858611246565b82611307565b61089d576040517f08c379a000000000000000000000000000000000000000000000000000000000815260040161089490613089565b60405180910390fd5b6108a88383836113e5565b505050565b60006108b883610bb4565b82106108f9576040517f08c379a00000000000000000000000000000000000000000000000000000000081526004016108f09061311b565b60405180910390fd5b600760008473ffffffffffffffffffffffffffffffffffffffff1673ffffffffffffffffffffffffffffffffffffffff168152602001908152602001600020600083815260200190815260200160002054905092915050565b61096d83838360405180602001604052806000815250610ea6565b505050565b600061097c610840565b82106109bd576040517f08c379a00000000000000000000000000000000000000000000000000000000081526004016109b4906131ad565b60405180910390fd5b600982815481106109d1576109d06131cd565b5b90600052602060002001549050919050565b6000600e826040516109f59190613238565b908152602001604051809103902060009054906101000a900460ff1615610a51576040517f08c379a0000000000000000000000000000000000000000000000000000000008152600401610a489061329b565b60405180910390fd5b600c54341015610a96576040517f08c379a0000000000000000000000000000000000000000000000000000000008152600401610a8d90613307565b60405180910390fd5b6000610aa2600f6111cc565b9050610aae600f61164b565b6001600e84604051610ac09190613238565b908152602001604051809103902060006101000a81548160ff021916908315150217905550610aef8482611661565b610af9818461183a565b8091505092915050565b6000806002600084815260200190815260200160002060009054906101000a900473ffffffffffffffffffffffffffffffffffffffff169050600073ffffffffffffffffffffffffffffffffffffffff168173ffffffffffffffffffffffffffffffffffffffff1603610bab576040517f08c379a0000000000000000000000000000000000000000000000000000000008152600401610ba290613399565b60405180910390fd5b80915050919050565b60008073ffffffffffffffffffffffffffffffffffffffff168273ffffffffffffffffffffffffffffffffffffffff1603610c24576040517f08c379a0000000000000000000000000000000000000000000000000000000008152600401610c1b9061342b565b60405180910390fd5b600360008373ffffffffffffffffffffffffffffffffffffffff1673ffffffffffffffffffffffffffffffffffffffff168152602001908152602001600020549050919050565b610c73611246565b73ffffffffffffffffffffffffffffffffffffffff16610c91610cf3565b73ffffffffffffffffffffffffffffffffffffffff1614610ce7576040517f08c379a0000000000000000000000000000000000000000000000000000000008152600401610cde90613497565b60405180910390fd5b610cf160006118ae565b565b6000600b60009054906101000a900473ffffffffffffffffffffffffffffffffffffffff16905090565b606060018054610d2c90612e30565b80601f0160208091040260200160405190810160405280929190818152602001828054610d5890612e30565b8015610da55780601f10610d7a57610100808354040283529160200191610da5565b820191906000526020600020905b815481529060010190602001808311610d8857829003601f168201915b5050505050905090565b6000600e82604051610dc19190613238565b908152602001604051809103902060009054906101000a900460ff169050919050565b610df6610def611246565b8383611974565b5050565b600d8181548110610e0a57600080fd5b906000526020600020016000915090508054610e2590612e30565b80601f0160208091040260200160405190810160405280929190818152602001828054610e5190612e30565b8015610e9e5780601f10610e7357610100808354040283529160200191610e9e565b820191906000526020600020905b815481529060010190602001808311610e8157829003601f168201915b505050505081565b610eb7610eb1611246565b83611307565b610ef6576040517f08c379a0000000000000000000000000000000000000000000000000000000008152600401610eed90613089565b60405180910390fd5b610f0284848484611ae0565b50505050565b6060610f1382611b3c565b9050919050565b610f22611246565b73ffffffffffffffffffffffffffffffffffffffff16610f40610cf3565b73ffffffffffffffffffffffffffffffffffffffff1614610f96576040517f08c379a0000000000000000000000000000000000000000000000000000000008152600401610f8d90613497565b60405180910390fd5b6000610fa2600f6111cc565b9050610fae600f61164b565b610fb88382611c8d565b610fc2818361183a565b505050565b6000600560008473ffffffffffffffffffffffffffffffffffffffff1673ffffffffffffffffffffffffffffffffffffffff16815260200190815260200160002060008373ffffffffffffffffffffffffffffffffffffffff1673ffffffffffffffffffffffffffffffffffffffff16815260200190815260200160002060009054906101000a900460ff16905092915050565b611063611246565b73ffffffffffffffffffffffffffffffffffffffff16611081610cf3565b73ffffffffffffffffffffffffffffffffffffffff16146110d7576040517f08c379a00000000000000000000000000000000000000000000000000000000081526004016110ce90613497565b60405180910390fd5b600073ffffffffffffffffffffffffffffffffffffffff168173ffffffffffffffffffffffffffffffffffffffff1603611146576040517f08c379a000000000000000000000000000000000000000000000000000000000815260040161113d90613529565b60405180910390fd5b61114f816118ae565b50565b60007f780e9d63000000000000000000000000000000000000000000000000000000007bffffffffffffffffffffffffffffffffffffffffffffffffffffffff1916827bffffffffffffffffffffffffffffffffffffffffffffffffffffffff191614806111c557506111c482611cab565b5b9050919050565b600081600001549050919050565b60008073ffffffffffffffffffffffffffffffffffffffff166002600084815260200190815260200160002060009054906101000a900473ffffffffffffffffffffffffffffffffffffffff1673ffffffffffffffffffffffffffffffffffffffff1614159050919050565b600033905090565b816004600083815260200190815260200160002060006101000a81548173ffffffffffffffffffffffffffffffffffffffff021916908373ffffffffffffffffffffffffffffffffffffffff160217905550808273ffffffffffffffffffffffffffffffffffffffff166112c183610b03565b73ffffffffffffffffffffffffffffffffffffffff167f8c5be1e5ebec7d5bd14f71427d1e84f3dd0314c0f7b2291e5b200ac8c7c3b92560405160405180910390a45050565b6000611312826111da565b611351576040517f08c379a0000000000000000000000000000000000000000000000000000000008152600401611348906135bb565b60405180910390fd5b600061135c83610b03565b90508073ffffffffffffffffffffffffffffffffffffffff168473ffffffffffffffffffffffffffffffffffffffff16148061139e575061139d8185610fc7565b5b806113dc57508373ffffffffffffffffffffffffffffffffffffffff166113c4846106a4565b73ffffffffffffffffffffffffffffffffffffffff16145b91505092915050565b8273ffffffffffffffffffffffffffffffffffffffff1661140582610b03565b73ffffffffffffffffffffffffffffffffffffffff161461145b576040517f08c379a00000000000000000000000000000000000000000000000000000000081526004016114529061364d565b60405180910390fd5b600073ffffffffffffffffffffffffffffffffffffffff168273ffffffffffffffffffffffffffffffffffffffff16036114ca576040517f08c379a00000000000000000000000000000000000000000000000000000000081526004016114c1906136df565b60405180910390fd5b6114d5838383611d8d565b6114e060008261124e565b6001600360008573ffffffffffffffffffffffffffffffffffffffff1673ffffffffffffffffffffffffffffffffffffffff1681526020019081526020016000206000828254611530919061372e565b925050819055506001600360008473ffffffffffffffffffffffffffffffffffffffff1673ffffffffffffffffffffffffffffffffffffffff16815260200190815260200160002060008282546115879190613762565b92505081905550816002600083815260200190815260200160002060006101000a81548173ffffffffffffffffffffffffffffffffffffffff021916908373ffffffffffffffffffffffffffffffffffffffff160217905550808273ffffffffffffffffffffffffffffffffffffffff168473ffffffffffffffffffffffffffffffffffffffff167fddf252ad1be2c89b69c2b068fc378daa952ba7f163c4a11628f55a4df523b3ef60405160405180910390a4611646838383611d9d565b505050565b6001816000016000828254019250508190555050565b600073ffffffffffffffffffffffffffffffffffffffff168273ffffffffffffffffffffffffffffffffffffffff16036116d0576040517f08c379a00000000000000000000000000000000000000000000000000000000081526004016116c790613804565b60405180910390fd5b6116d9816111da565b15611719576040517f08c379a000000000000000000000000000000000000000000000000000000000815260040161171090613870565b60405180910390fd5b61172560008383611d8d565b6001600360008473ffffffffffffffffffffffffffffffffffffffff1673ffffffffffffffffffffffffffffffffffffffff16815260200190815260200160002060008282546117759190613762565b92505081905550816002600083815260200190815260200160002060006101000a81548173ffffffffffffffffffffffffffffffffffffffff021916908373ffffffffffffffffffffffffffffffffffffffff160217905550808273ffffffffffffffffffffffffffffffffffffffff16600073ffffffffffffffffffffffffffffffffffffffff167fddf252ad1be2c89b69c2b068fc378daa952ba7f163c4a11628f55a4df523b3ef60405160405180910390a461183660008383611d9d565b5050565b611843826111da565b611882576040517f08c379a000000000000000000000000000000000000000000000000000000000815260040161187990613902565b60405180910390fd5b806006600084815260200190815260200160002090805190602001906118a9929190612655565b505050565b6000600b60009054906101000a900473ffffffffffffffffffffffffffffffffffffffff16905081600b60006101000a81548173ffffffffffffffffffffffffffffffffffffffff021916908373ffffffffffffffffffffffffffffffffffffffff1602179055508173ffffffffffffffffffffffffffffffffffffffff168173ffffffffffffffffffffffffffffffffffffffff167f8be0079c531659141344cd1fd0a4f28419497f9722a3daafe3b4186f6b6457e060405160405180910390a35050565b8173ffffffffffffffffffffffffffffffffffffffff168373ffffffffffffffffffffffffffffffffffffffff16036119e2576040517f08c379a00000000000000000000000000000000000000000000000000000000081526004016119d99061396e565b60405180910390fd5b80600560008573ffffffffffffffffffffffffffffffffffffffff1673ffffffffffffffffffffffffffffffffffffffff16815260200190815260200160002060008473ffffffffffffffffffffffffffffffffffffffff1673ffffffffffffffffffffffffffffffffffffffff16815260200190815260200160002060006101000a81548160ff0219169083151502179055508173ffffffffffffffffffffffffffffffffffffffff168373ffffffffffffffffffffffffffffffffffffffff167f17307eab39ab6107e8899845ad3d59bd9653f200f220920489ca2b5937696c3183604051611ad391906127ac565b60405180910390a3505050565b611aeb8484846113e5565b611af784848484611da2565b611b36576040517f08c379a0000000000000000000000000000000000000000000000000000000008152600401611b2d90613a00565b60405180910390fd5b50505050565b6060611b47826111da565b611b86576040517f08c379a0000000000000000000000000000000000000000000000000000000008152600401611b7d90613a92565b60405180910390fd5b6000600660008481526020019081526020016000208054611ba690612e30565b80601f0160208091040260200160405190810160405280929190818152602001828054611bd290612e30565b8015611c1f5780601f10611bf457610100808354040283529160200191611c1f565b820191906000526020600020905b815481529060010190602001808311611c0257829003601f168201915b505050505090506000611c30611f29565b90506000815103611c45578192505050611c88565b600082511115611c7a578082604051602001611c62929190613ab2565b60405160208183030381529060405292505050611c88565b611c8384611f49565b925050505b919050565b611ca7828260405180602001604052806000815250611ff0565b5050565b60007f80ac58cd000000000000000000000000000000000000000000000000000000007bffffffffffffffffffffffffffffffffffffffffffffffffffffffff1916827bffffffffffffffffffffffffffffffffffffffffffffffffffffffff19161480611d7657507f5b5e139f000000000000000000000000000000000000000000000000000000007bffffffffffffffffffffffffffffffffffffffffffffffffffffffff1916827bffffffffffffffffffffffffffffffffffffffffffffffffffffffff1916145b80611d865750611d858261204b565b5b9050919050565b611d988383836120b5565b505050565b505050565b6000611dc38473ffffffffffffffffffffffffffffffffffffffff166121c7565b15611f1c578373ffffffffffffffffffffffffffffffffffffffff1663150b7a02611dec611246565b8786866040518563ffffffff1660e01b8152600401611e0e9493929190613b2b565b6020604051808303816000875af1925050508015611e4a57506040513d601f19601f82011682018060405250810190611e479190613b8c565b60015b611ecc573d8060008114611e7a576040519150601f19603f3d011682016040523d82523d6000602084013e611e7f565b606091505b506000815103611ec4576040517f08c379a0000000000000000000000000000000000000000000000000000000008152600401611ebb90613a00565b60405180910390fd5b805181602001fd5b63150b7a0260e01b7bffffffffffffffffffffffffffffffffffffffffffffffffffffffff1916817bffffffffffffffffffffffffffffffffffffffffffffffffffffffff191614915050611f21565b600190505b949350505050565b6060604051806060016040528060228152602001613d5460229139905090565b6060611f54826111da565b611f93576040517f08c379a0000000000000000000000000000000000000000000000000000000008152600401611f8a90613c2b565b60405180910390fd5b6000611f9d611f29565b90506000815111611fbd5760405180602001604052806000815250611fe8565b80611fc7846121ea565b604051602001611fd8929190613ab2565b6040516020818303038152906040525b915050919050565b611ffa8383611661565b6120076000848484611da2565b612046576040517f08c379a000000000000000000000000000000000000000000000000000000000815260040161203d90613a00565b60405180910390fd5b505050565b60007f01ffc9a7000000000000000000000000000000000000000000000000000000007bffffffffffffffffffffffffffffffffffffffffffffffffffffffff1916827bffffffffffffffffffffffffffffffffffffffffffffffffffffffff1916149050919050565b6120c083838361234a565b600073ffffffffffffffffffffffffffffffffffffffff168373ffffffffffffffffffffffffffffffffffffffff1603612102576120fd8161234f565b612141565b8173ffffffffffffffffffffffffffffffffffffffff168373ffffffffffffffffffffffffffffffffffffffff16146121405761213f8382612398565b5b5b600073ffffffffffffffffffffffffffffffffffffffff168273ffffffffffffffffffffffffffffffffffffffff16036121835761217e81612505565b6121c2565b8273ffffffffffffffffffffffffffffffffffffffff168273ffffffffffffffffffffffffffffffffffffffff16146121c1576121c082826125d6565b5b5b505050565b6000808273ffffffffffffffffffffffffffffffffffffffff163b119050919050565b606060008203612231576040518060400160405280600181526020017f30000000000000000000000000000000000000000000000000000000000000008152509050612345565b600082905060005b6000821461226357808061224c90613c4b565b915050600a8261225c9190613cc2565b9150612239565b60008167ffffffffffffffff81111561227f5761227e612a34565b5b6040519080825280601f01601f1916602001820160405280156122b15781602001600182028036833780820191505090505b5090505b6000851461233e576001826122ca919061372e565b9150600a856122d99190613cf3565b60306122e59190613762565b60f81b8183815181106122fb576122fa6131cd565b5b60200101907effffffffffffffffffffffffffffffffffffffffffffffffffffffffffffff1916908160001a905350600a856123379190613cc2565b94506122b5565b8093505050505b919050565b505050565b600980549050600a600083815260200190815260200160002081905550600981908060018154018082558091505060019003906000526020600020016000909190919091505550565b600060016123a584610bb4565b6123af919061372e565b9050600060086000848152602001908152602001600020549050818114612494576000600760008673ffffffffffffffffffffffffffffffffffffffff1673ffffffffffffffffffffffffffffffffffffffff168152602001908152602001600020600084815260200190815260200160002054905080600760008773ffffffffffffffffffffffffffffffffffffffff1673ffffffffffffffffffffffffffffffffffffffff168152602001908152602001600020600084815260200190815260200160002081905550816008600083815260200190815260200160002081905550505b6008600084815260200190815260200160002060009055600760008573ffffffffffffffffffffffffffffffffffffffff1673ffffffffffffffffffffffffffffffffffffffff16815260200190815260200160002060008381526020019081526020016000206000905550505050565b60006001600980549050612519919061372e565b90506000600a6000848152602001908152602001600020549050600060098381548110612549576125486131cd565b5b90600052602060002001549050806009838154811061256b5761256a6131cd565b5b906000526020600020018190555081600a600083815260200190815260200160002081905550600a60008581526020019081526020016000206000905560098054806125ba576125b9613d24565b5b6001900381819060005260206000200160009055905550505050565b60006125e183610bb4565b905081600760008573ffffffffffffffffffffffffffffffffffffffff1673ffffffffffffffffffffffffffffffffffffffff168152602001908152602001600020600083815260200190815260200160002081905550806008600084815260200190815260200160002081905550505050565b82805461266190612e30565b90600052602060002090601f01602090048101928261268357600085556126ca565b82601f1061269c57805160ff19168380011785556126ca565b828001600101855582156126ca579182015b828111156126c95782518255916020019190600101906126ae565b5b5090506126d791906126db565b5090565b5b808211156126f45760008160009055506001016126dc565b5090565b6000604051905090565b600080fd5b600080fd5b60007fffffffff0000000000000000000000000000000000000000000000000000000082169050919050565b6127418161270c565b811461274c57600080fd5b50565b60008135905061275e81612738565b92915050565b60006020828403121561277a57612779612702565b5b60006127888482850161274f565b91505092915050565b60008115159050919050565b6127a681612791565b82525050565b60006020820190506127c1600083018461279d565b92915050565b6000819050919050565b6127da816127c7565b82525050565b60006020820190506127f560008301846127d1565b92915050565b600081519050919050565b600082825260208201905092915050565b60005b8381101561283557808201518184015260208101905061281a565b83811115612844576000848401525b50505050565b6000601f19601f8301169050919050565b6000612866826127fb565b6128708185612806565b9350612880818560208601612817565b6128898161284a565b840191505092915050565b600060208201905081810360008301526128ae818461285b565b905092915050565b6128bf816127c7565b81146128ca57600080fd5b50565b6000813590506128dc816128b6565b92915050565b6000602082840312156128f8576128f7612702565b5b6000612906848285016128cd565b91505092915050565b600073ffffffffffffffffffffffffffffffffffffffff82169050919050565b600061293a8261290f565b9050919050565b61294a8161292f565b82525050565b60006020820190506129656000830184612941565b92915050565b6129748161292f565b811461297f57600080fd5b50565b6000813590506129918161296b565b92915050565b600080604083850312156129ae576129ad612702565b5b60006129bc85828601612982565b92505060206129cd858286016128cd565b9150509250929050565b6000806000606084860312156129f0576129ef612702565b5b60006129fe86828701612982565b9350506020612a0f86828701612982565b9250506040612a20868287016128cd565b9150509250925092565b600080fd5b600080fd5b7f4e487b7100000000000000000000000000000000000000000000000000000000600052604160045260246000fd5b612a6c8261284a565b810181811067ffffffffffffffff82111715612a8b57612a8a612a34565b5b80604052505050565b6000612a9e6126f8565b9050612aaa8282612a63565b919050565b600067ffffffffffffffff821115612aca57612ac9612a34565b5b612ad38261284a565b9050602081019050919050565b82818337600083830152505050565b6000612b02612afd84612aaf565b612a94565b905082815260208101848484011115612b1e57612b1d612a2f565b5b612b29848285612ae0565b509392505050565b600082601f830112612b4657612b45612a2a565b5b8135612b56848260208601612aef565b91505092915050565b60008060408385031215612b7657612b75612702565b5b6000612b8485828601612982565b925050602083013567ffffffffffffffff811115612ba557612ba4612707565b5b612bb185828601612b31565b9150509250929050565b600060208284031215612bd157612bd0612702565b5b6000612bdf84828501612982565b91505092915050565b600060208284031215612bfe57612bfd612702565b5b600082013567ffffffffffffffff811115612c1c57612c1b612707565b5b612c2884828501612b31565b91505092915050565b612c3a81612791565b8114612c4557600080fd5b50565b600081359050612c5781612c31565b92915050565b60008060408385031215612c7457612c73612702565b5b6000612c8285828601612982565b9250506020612c9385828601612c48565b9150509250929050565b600067ffffffffffffffff821115612cb857612cb7612a34565b5b612cc18261284a565b9050602081019050919050565b6000612ce1612cdc84612c9d565b612a94565b905082815260208101848484011115612cfd57612cfc612a2f565b5b612d08848285612ae0565b509392505050565b600082601f830112612d2557612d24612a2a565b5b8135612d35848260208601612cce565b91505092915050565b60008060008060808587031215612d5857612d57612702565b5b6000612d6687828801612982565b9450506020612d7787828801612982565b9350506040612d88878288016128cd565b925050606085013567ffffffffffffffff811115612da957612da8612707565b5b612db587828801612d10565b91505092959194509250565b60008060408385031215612dd857612dd7612702565b5b6000612de685828601612982565b9250506020612df785828601612982565b9150509250929050565b7f4e487b7100000000000000000000000000000000000000000000000000000000600052602260045260246000fd5b60006002820490506001821680612e4857607f821691505b602082108103612e5b57612e5a612e01565b5b50919050565b7f4552433732313a20617070726f76656420717565727920666f72206e6f6e657860008201527f697374656e7420746f6b656e0000000000000000000000000000000000000000602082015250565b6000612ebd602c83612806565b9150612ec882612e61565b604082019050919050565b60006020820190508181036000830152612eec81612eb0565b9050919050565b7f4552433732313a20617070726f76616c20746f2063757272656e74206f776e6560008201527f7200000000000000000000000000000000000000000000000000000000000000602082015250565b6000612f4f602183612806565b9150612f5a82612ef3565b604082019050919050565b60006020820190508181036000830152612f7e81612f42565b9050919050565b7f4552433732313a20617070726f76652063616c6c6572206973206e6f74206f7760008201527f6e6572206e6f7220617070726f76656420666f7220616c6c0000000000000000602082015250565b6000612fe1603883612806565b9150612fec82612f85565b604082019050919050565b6000602082019050818103600083015261301081612fd4565b9050919050565b7f4552433732313a207472616e736665722063616c6c6572206973206e6f74206f60008201527f776e6572206e6f7220617070726f766564000000000000000000000000000000602082015250565b6000613073603183612806565b915061307e82613017565b604082019050919050565b600060208201905081810360008301526130a281613066565b9050919050565b7f455243373231456e756d657261626c653a206f776e657220696e646578206f7560008201527f74206f6620626f756e6473000000000000000000000000000000000000000000602082015250565b6000613105602b83612806565b9150613110826130a9565b604082019050919050565b60006020820190508181036000830152613134816130f8565b9050919050565b7f455243373231456e756d657261626c653a20676c6f62616c20696e646578206f60008201527f7574206f6620626f756e64730000000000000000000000000000000000000000602082015250565b6000613197602c83612806565b91506131a28261313b565b604082019050919050565b600060208201905081810360008301526131c68161318a565b9050919050565b7f4e487b7100000000000000000000000000000000000000000000000000000000600052603260045260246000fd5b600081905092915050565b6000613212826127fb565b61321c81856131fc565b935061322c818560208601612817565b80840191505092915050565b60006132448284613207565b915081905092915050565b7f4e465420616c7265616479204d696e7465642100000000000000000000000000600082015250565b6000613285601383612806565b91506132908261324f565b602082019050919050565b600060208201905081810360008301526132b481613278565b9050919050565b7f4e65656420746f20506179207570210000000000000000000000000000000000600082015250565b60006132f1600f83612806565b91506132fc826132bb565b602082019050919050565b60006020820190508181036000830152613320816132e4565b9050919050565b7f4552433732313a206f776e657220717565727920666f72206e6f6e657869737460008201527f656e7420746f6b656e0000000000000000000000000000000000000000000000602082015250565b6000613383602983612806565b915061338e82613327565b604082019050919050565b600060208201905081810360008301526133b281613376565b9050919050565b7f4552433732313a2062616c616e636520717565727920666f7220746865207a6560008201527f726f206164647265737300000000000000000000000000000000000000000000602082015250565b6000613415602a83612806565b9150613420826133b9565b604082019050919050565b6000602082019050818103600083015261344481613408565b9050919050565b7f4f776e61626c653a2063616c6c6572206973206e6f7420746865206f776e6572600082015250565b6000613481602083612806565b915061348c8261344b565b602082019050919050565b600060208201905081810360008301526134b081613474565b9050919050565b7f4f776e61626c653a206e6577206f776e657220697320746865207a65726f206160008201527f6464726573730000000000000000000000000000000000000000000000000000602082015250565b6000613513602683612806565b915061351e826134b7565b604082019050919050565b6000602082019050818103600083015261354281613506565b9050919050565b7f4552433732313a206f70657261746f7220717565727920666f72206e6f6e657860008201527f697374656e7420746f6b656e0000000000000000000000000000000000000000602082015250565b60006135a5602c83612806565b91506135b082613549565b604082019050919050565b600060208201905081810360008301526135d481613598565b9050919050565b7f4552433732313a207472616e736665722066726f6d20696e636f72726563742060008201527f6f776e6572000000000000000000000000000000000000000000000000000000602082015250565b6000613637602583612806565b9150613642826135db565b604082019050919050565b600060208201905081810360008301526136668161362a565b9050919050565b7f4552433732313a207472616e7366657220746f20746865207a65726f2061646460008201527f7265737300000000000000000000000000000000000000000000000000000000602082015250565b60006136c9602483612806565b91506136d48261366d565b604082019050919050565b600060208201905081810360008301526136f8816136bc565b9050919050565b7f4e487b7100000000000000000000000000000000000000000000000000000000600052601160045260246000fd5b6000613739826127c7565b9150613744836127c7565b925082821015613757576137566136ff565b5b828203905092915050565b600061376d826127c7565b9150613778836127c7565b9250827fffffffffffffffffffffffffffffffffffffffffffffffffffffffffffffffff038211156137ad576137ac6136ff565b5b828201905092915050565b7f4552433732313a206d696e7420746f20746865207a65726f2061646472657373600082015250565b60006137ee602083612806565b91506137f9826137b8565b602082019050919050565b6000602082019050818103600083015261381d816137e1565b9050919050565b7f4552433732313a20746f6b656e20616c7265616479206d696e74656400000000600082015250565b600061385a601c83612806565b915061386582613824565b602082019050919050565b600060208201905081810360008301526138898161384d565b9050919050565b7f45524337323155524953746f726167653a2055524920736574206f66206e6f6e60008201527f6578697374656e7420746f6b656e000000000000000000000000000000000000602082015250565b60006138ec602e83612806565b91506138f782613890565b604082019050919050565b6000602082019050818103600083015261391b816138df565b9050919050565b7f4552433732313a20617070726f766520746f2063616c6c657200000000000000600082015250565b6000613958601983612806565b915061396382613922565b602082019050919050565b600060208201905081810360008301526139878161394b565b9050919050565b7f4552433732313a207472616e7366657220746f206e6f6e20455243373231526560008201527f63656976657220696d706c656d656e7465720000000000000000000000000000602082015250565b60006139ea603283612806565b91506139f58261398e565b604082019050919050565b60006020820190508181036000830152613a19816139dd565b9050919050565b7f45524337323155524953746f726167653a2055524920717565727920666f722060008201527f6e6f6e6578697374656e7420746f6b656e000000000000000000000000000000602082015250565b6000613a7c603183612806565b9150613a8782613a20565b604082019050919050565b60006020820190508181036000830152613aab81613a6f565b9050919050565b6000613abe8285613207565b9150613aca8284613207565b91508190509392505050565b600081519050919050565b600082825260208201905092915050565b6000613afd82613ad6565b613b078185613ae1565b9350613b17818560208601612817565b613b208161284a565b840191505092915050565b6000608082019050613b406000830187612941565b613b4d6020830186612941565b613b5a60408301856127d1565b8181036060830152613b6c8184613af2565b905095945050505050565b600081519050613b8681612738565b92915050565b600060208284031215613ba257613ba1612702565b5b6000613bb084828501613b77565b91505092915050565b7f4552433732314d657461646174613a2055524920717565727920666f72206e6f60008201527f6e6578697374656e7420746f6b656e0000000000000000000000000000000000602082015250565b6000613c15602f83612806565b9150613c2082613bb9565b604082019050919050565b60006020820190508181036000830152613c4481613c08565b9050919050565b6000613c56826127c7565b91507fffffffffffffffffffffffffffffffffffffffffffffffffffffffffffffffff8203613c8857613c876136ff565b5b600182019050919050565b7f4e487b7100000000000000000000000000000000000000000000000000000000600052601260045260246000fd5b6000613ccd826127c7565b9150613cd8836127c7565b925082613ce857613ce7613c93565b5b828204905092915050565b6000613cfe826127c7565b9150613d09836127c7565b925082613d1957613d18613c93565b5b828206905092915050565b7f4e487b7100000000000000000000000000000000000000000000000000000000600052603160045260246000fdfe68747470733a2f2f676174657761792e70696e6174612e636c6f75642f697066732fa2646970667358221220ddbe21b4fdc64020dab4ee8fe2d5093db01ab6868417b57ce6bca533fd58a67b64736f6c634300080d0033",
  "immutableReferences": {},
  "source": "// SPDX-License-Identifier: MIT\npragma solidity ^0.8.0;\n\nimport \"@openzeppelin/contracts/token/ERC721/ERC721.sol\";\nimport \"@openzeppelin/contracts/token/ERC721/extensions/ERC721URIStorage.sol\";\nimport \"@openzeppelin/contracts/token/ERC721/extensions/ERC721Enumerable.sol\";\nimport \"@openzeppelin/contracts/access/Ownable.sol\";\nimport \"@openzeppelin/contracts/utils/Counters.sol\";\n\ncontract HortensiaNFT is ERC721, ERC721URIStorage, ERC721Enumerable, Ownable {\n    uint NFTPrice = 0.05 ether;\n    using Counters for Counters.Counter;\n    string[] public hortensias;\n    mapping(string => bool) hortensiasExists;\n\n    Counters.Counter private _tokenIdCounter;\n\n    constructor() ERC721(\"Hortensia\", \"HOR \") {\n\n    }\n\n    function _baseURI() internal pure override returns (string memory) {\n        return \"https://gateway.pinata.cloud/ipfs/\";\n    }\n\n    function safeMint(address to, string memory uri) public onlyOwner {\n        uint256 tokenId = _tokenIdCounter.current();\n        _tokenIdCounter.increment();\n        _safeMint(to, tokenId);\n        _setTokenURI(tokenId, uri);\n    }\n\n    // The following functions are overrides required by Solidity.\n    function _beforeTokenTransfer(address from, address to, uint256 tokenId)\n        internal\n        override(ERC721, ERC721Enumerable)\n    {\n        super._beforeTokenTransfer(from, to, tokenId);\n    }\n    \n    function _burn(uint256 tokenId) internal override(ERC721, ERC721URIStorage) {\n        super._burn(tokenId);\n    }\n\n    function tokenURI(uint256 tokenId)\n        public\n        view\n        override(ERC721, ERC721URIStorage)\n        returns (string memory)\n    {\n        return super.tokenURI(tokenId);\n    }\n\n      function supportsInterface(bytes4 interfaceId)\n        public\n        view\n        override(ERC721, ERC721Enumerable)\n        returns (bool)\n    {\n        return super.supportsInterface(interfaceId);\n    }\n    \n    function isContentOwned(string memory uri) public view returns (bool){\n        return hortensiasExists[uri];\n    }\n\n    function paytoMint(address _recipient, string memory _metadataURI) public payable returns(uint256){\n        require(!(hortensiasExists[_metadataURI]),'NFT already Minted!');\n        require(msg.value >= NFTPrice, \"Need to Pay up!\");\n        uint _newItemID = _tokenIdCounter.current();\n        _tokenIdCounter.increment();\n        hortensiasExists[_metadataURI] = true;\n        _mint(_recipient, _newItemID);\n        _setTokenURI(_newItemID, _metadataURI);\n        return _newItemID;\n    }\n\n    function count() public view returns (uint256){\n        return( _tokenIdCounter.current());\n    }\n}",
  "sourcePath": "/Users/arnaudberger/hortensiq/Client/src/contracts/HortensiaNFT.sol",
  "compiler": {
    "name": "solc",
    "version": "0.8.13+commit.abaa5c0e.Emscripten.clang"
  },
  "schemaVersion": "3.4.7",
  "updatedAt": "2022-05-04T21:55:29.100Z",
  "devdoc": {
    "kind": "dev",
    "methods": {
      "approve(address,uint256)": {
        "details": "See {IERC721-approve}."
      },
      "balanceOf(address)": {
        "details": "See {IERC721-balanceOf}."
      },
      "getApproved(uint256)": {
        "details": "See {IERC721-getApproved}."
      },
      "isApprovedForAll(address,address)": {
        "details": "See {IERC721-isApprovedForAll}."
      },
      "name()": {
        "details": "See {IERC721Metadata-name}."
      },
      "owner()": {
        "details": "Returns the address of the current owner."
      },
      "ownerOf(uint256)": {
        "details": "See {IERC721-ownerOf}."
      },
      "renounceOwnership()": {
        "details": "Leaves the contract without owner. It will not be possible to call `onlyOwner` functions anymore. Can only be called by the current owner. NOTE: Renouncing ownership will leave the contract without an owner, thereby removing any functionality that is only available to the owner."
      },
      "safeTransferFrom(address,address,uint256)": {
        "details": "See {IERC721-safeTransferFrom}."
      },
      "safeTransferFrom(address,address,uint256,bytes)": {
        "details": "See {IERC721-safeTransferFrom}."
      },
      "setApprovalForAll(address,bool)": {
        "details": "See {IERC721-setApprovalForAll}."
      },
      "symbol()": {
        "details": "See {IERC721Metadata-symbol}."
      },
      "tokenByIndex(uint256)": {
        "details": "See {IERC721Enumerable-tokenByIndex}."
      },
      "tokenOfOwnerByIndex(address,uint256)": {
        "details": "See {IERC721Enumerable-tokenOfOwnerByIndex}."
      },
      "totalSupply()": {
        "details": "See {IERC721Enumerable-totalSupply}."
      },
      "transferFrom(address,address,uint256)": {
        "details": "See {IERC721-transferFrom}."
      },
      "transferOwnership(address)": {
        "details": "Transfers ownership of the contract to a new account (`newOwner`). Can only be called by the current owner."
      }
    },
    "version": 1
  },
  "userdoc": {
    "kind": "user",
    "methods": {},
    "version": 1
  }
}