{
  "contractName": "HortensiaNFT",
  "abi": [
    {
      "inputs": [],
      "stateMutability": "nonpayable",
      "type": "constructor"
    },
    {
      "anonymous": false,
      "inputs": [
        {
          "indexed": true,
          "internalType": "address",
          "name": "owner",
          "type": "address"
        },
        {
          "indexed": true,
          "internalType": "address",
          "name": "approved",
          "type": "address"
        },
        {
          "indexed": true,
          "internalType": "uint256",
          "name": "tokenId",
          "type": "uint256"
        }
      ],
      "name": "Approval",
      "type": "event"
    },
    {
      "anonymous": false,
      "inputs": [
        {
          "indexed": true,
          "internalType": "address",
          "name": "owner",
          "type": "address"
        },
        {
          "indexed": true,
          "internalType": "address",
          "name": "operator",
          "type": "address"
        },
        {
          "indexed": false,
          "internalType": "bool",
          "name": "approved",
          "type": "bool"
        }
      ],
      "name": "ApprovalForAll",
      "type": "event"
    },
    {
      "anonymous": false,
      "inputs": [
        {
          "indexed": true,
          "internalType": "address",
          "name": "previousOwner",
          "type": "address"
        },
        {
          "indexed": true,
          "internalType": "address",
          "name": "newOwner",
          "type": "address"
        }
      ],
      "name": "OwnershipTransferred",
      "type": "event"
    },
    {
      "anonymous": false,
      "inputs": [
        {
          "indexed": true,
          "internalType": "address",
          "name": "from",
          "type": "address"
        },
        {
          "indexed": true,
          "internalType": "address",
          "name": "to",
          "type": "address"
        },
        {
          "indexed": true,
          "internalType": "uint256",
          "name": "tokenId",
          "type": "uint256"
        }
      ],
      "name": "Transfer",
      "type": "event"
    },
    {
      "inputs": [
        {
          "internalType": "address",
          "name": "to",
          "type": "address"
        },
        {
          "internalType": "uint256",
          "name": "tokenId",
          "type": "uint256"
        }
      ],
      "name": "approve",
      "outputs": [],
      "stateMutability": "nonpayable",
      "type": "function"
    },
    {
      "inputs": [
        {
          "internalType": "address",
          "name": "owner",
          "type": "address"
        }
      ],
      "name": "balanceOf",
      "outputs": [
        {
          "internalType": "uint256",
          "name": "",
          "type": "uint256"
        }
      ],
      "stateMutability": "view",
      "type": "function",
      "constant": true
    },
    {
      "inputs": [
        {
          "internalType": "uint256",
          "name": "tokenId",
          "type": "uint256"
        }
      ],
      "name": "getApproved",
      "outputs": [
        {
          "internalType": "address",
          "name": "",
          "type": "address"
        }
      ],
      "stateMutability": "view",
      "type": "function",
      "constant": true
    },
    {
      "inputs": [
        {
          "internalType": "uint256",
          "name": "",
          "type": "uint256"
        }
      ],
      "name": "hortensias",
      "outputs": [
        {
          "internalType": "string",
          "name": "",
          "type": "string"
        }
      ],
      "stateMutability": "view",
      "type": "function",
      "constant": true
    },
    {
      "inputs": [
        {
          "internalType": "address",
          "name": "owner",
          "type": "address"
        },
        {
          "internalType": "address",
          "name": "operator",
          "type": "address"
        }
      ],
      "name": "isApprovedForAll",
      "outputs": [
        {
          "internalType": "bool",
          "name": "",
          "type": "bool"
        }
      ],
      "stateMutability": "view",
      "type": "function",
      "constant": true
    },
    {
      "inputs": [],
      "name": "name",
      "outputs": [
        {
          "internalType": "string",
          "name": "",
          "type": "string"
        }
      ],
      "stateMutability": "view",
      "type": "function",
      "constant": true
    },
    {
      "inputs": [],
      "name": "owner",
      "outputs": [
        {
          "internalType": "address",
          "name": "",
          "type": "address"
        }
      ],
      "stateMutability": "view",
      "type": "function",
      "constant": true
    },
    {
      "inputs": [
        {
          "internalType": "uint256",
          "name": "tokenId",
          "type": "uint256"
        }
      ],
      "name": "ownerOf",
      "outputs": [
        {
          "internalType": "address",
          "name": "",
          "type": "address"
        }
      ],
      "stateMutability": "view",
      "type": "function",
      "constant": true
    },
    {
      "inputs": [],
      "name": "renounceOwnership",
      "outputs": [],
      "stateMutability": "nonpayable",
      "type": "function"
    },
    {
      "inputs": [
        {
          "internalType": "address",
          "name": "from",
          "type": "address"
        },
        {
          "internalType": "address",
          "name": "to",
          "type": "address"
        },
        {
          "internalType": "uint256",
          "name": "tokenId",
          "type": "uint256"
        }
      ],
      "name": "safeTransferFrom",
      "outputs": [],
      "stateMutability": "nonpayable",
      "type": "function"
    },
    {
      "inputs": [
        {
          "internalType": "address",
          "name": "from",
          "type": "address"
        },
        {
          "internalType": "address",
          "name": "to",
          "type": "address"
        },
        {
          "internalType": "uint256",
          "name": "tokenId",
          "type": "uint256"
        },
        {
          "internalType": "bytes",
          "name": "_data",
          "type": "bytes"
        }
      ],
      "name": "safeTransferFrom",
      "outputs": [],
      "stateMutability": "nonpayable",
      "type": "function"
    },
    {
      "inputs": [
        {
          "internalType": "address",
          "name": "operator",
          "type": "address"
        },
        {
          "internalType": "bool",
          "name": "approved",
          "type": "bool"
        }
      ],
      "name": "setApprovalForAll",
      "outputs": [],
      "stateMutability": "nonpayable",
      "type": "function"
    },
    {
      "inputs": [
        {
          "internalType": "bytes4",
          "name": "interfaceId",
          "type": "bytes4"
        }
      ],
      "name": "supportsInterface",
      "outputs": [
        {
          "internalType": "bool",
          "name": "",
          "type": "bool"
        }
      ],
      "stateMutability": "view",
      "type": "function",
      "constant": true
    },
    {
      "inputs": [],
      "name": "symbol",
      "outputs": [
        {
          "internalType": "string",
          "name": "",
          "type": "string"
        }
      ],
      "stateMutability": "view",
      "type": "function",
      "constant": true
    },
    {
      "inputs": [
        {
          "internalType": "address",
          "name": "from",
          "type": "address"
        },
        {
          "internalType": "address",
          "name": "to",
          "type": "address"
        },
        {
          "internalType": "uint256",
          "name": "tokenId",
          "type": "uint256"
        }
      ],
      "name": "transferFrom",
      "outputs": [],
      "stateMutability": "nonpayable",
      "type": "function"
    },
    {
      "inputs": [
        {
          "internalType": "address",
          "name": "newOwner",
          "type": "address"
        }
      ],
      "name": "transferOwnership",
      "outputs": [],
      "stateMutability": "nonpayable",
      "type": "function"
    },
    {
      "inputs": [
        {
          "internalType": "address",
          "name": "to",
          "type": "address"
        },
        {
          "internalType": "string",
          "name": "uri",
          "type": "string"
        }
      ],
      "name": "safeMint",
      "outputs": [],
      "stateMutability": "nonpayable",
      "type": "function"
    },
    {
      "inputs": [
        {
          "internalType": "uint256",
          "name": "tokenId",
          "type": "uint256"
        }
      ],
      "name": "tokenURI",
      "outputs": [
        {
          "internalType": "string",
          "name": "",
          "type": "string"
        }
      ],
      "stateMutability": "view",
      "type": "function",
      "constant": true
    },
    {
      "inputs": [
        {
          "internalType": "string",
          "name": "uri",
          "type": "string"
        }
      ],
      "name": "isContentOwned",
      "outputs": [
        {
          "internalType": "bool",
          "name": "",
          "type": "bool"
        }
      ],
      "stateMutability": "view",
      "type": "function",
      "constant": true
    },
    {
      "inputs": [
        {
          "internalType": "address",
          "name": "_recipient",
          "type": "address"
        },
        {
          "internalType": "string",
          "name": "_metadataURI",
          "type": "string"
        }
      ],
      "name": "paytoMint",
      "outputs": [
        {
          "internalType": "uint256",
          "name": "",
          "type": "uint256"
        }
      ],
      "stateMutability": "payable",
      "type": "function",
      "payable": true
    },
    {
      "inputs": [],
      "name": "count",
      "outputs": [
        {
          "internalType": "uint256",
          "name": "",
          "type": "uint256"
        }
      ],
      "stateMutability": "view",
      "type": "function",
      "constant": true
    }
  ],
  "bytecode": "0x608060405266b1a2bc2ec500006008553480156200001c57600080fd5b506040805180820182526009815268486f7274656e73696160b81b60208083019182528351808501909452600484526302427a9160e51b9084015281519192916200006a91600091620000f9565b50805162000080906001906020840190620000f9565b5050506200009d62000097620000a360201b60201c565b620000a7565b620001dc565b3390565b600780546001600160a01b038381166001600160a01b0319831681179093556040519116919082907f8be0079c531659141344cd1fd0a4f28419497f9722a3daafe3b4186f6b6457e090600090a35050565b82805462000107906200019f565b90600052602060002090601f0160209004810192826200012b576000855562000176565b82601f106200014657805160ff191683800117855562000176565b8280016001018555821562000176579182015b828111156200017657825182559160200191906001019062000159565b506200018492915062000188565b5090565b5b8082111562000184576000815560010162000189565b600181811c90821680620001b457607f821691505b60208210811415620001d657634e487b7160e01b600052602260045260246000fd5b50919050565b611d0f80620001ec6000396000f3fe60806040526004361061012a5760003560e01c8063715018a6116100ab578063b02af3ea1161006f578063b02af3ea1461031e578063b88d4fde1461033e578063c87b56dd1461035e578063d204c45e1461037e578063e985e9c51461039e578063f2fde38b146103e757600080fd5b8063715018a6146102965780638da5cb5b146102ab57806395d89b41146102c95780639f1cabc6146102de578063a22cb465146102fe57600080fd5b806323b872dd116100f257806323b872dd1461020357806342842e0e146102235780635c9a7f93146102435780636352211e1461025657806370a082311461027657600080fd5b806301ffc9a71461012f57806306661abd1461016457806306fdde0314610187578063081812fc146101a9578063095ea7b3146101e1575b600080fd5b34801561013b57600080fd5b5061014f61014a3660046116c5565b610407565b60405190151581526020015b60405180910390f35b34801561017057600080fd5b50610179610459565b60405190815260200161015b565b34801561019357600080fd5b5061019c610469565b60405161015b919061173a565b3480156101b557600080fd5b506101c96101c436600461174d565b6104fb565b6040516001600160a01b03909116815260200161015b565b3480156101ed57600080fd5b506102016101fc366004611782565b610588565b005b34801561020f57600080fd5b5061020161021e3660046117ac565b61069e565b34801561022f57600080fd5b5061020161023e3660046117ac565b6106cf565b610179610251366004611894565b6106ea565b34801561026257600080fd5b506101c961027136600461174d565b6107fe565b34801561028257600080fd5b506101796102913660046118e2565b610875565b3480156102a257600080fd5b506102016108fc565b3480156102b757600080fd5b506007546001600160a01b03166101c9565b3480156102d557600080fd5b5061019c610932565b3480156102ea57600080fd5b5061014f6102f93660046118fd565b610941565b34801561030a57600080fd5b50610201610319366004611932565b61096c565b34801561032a57600080fd5b5061019c61033936600461174d565b61097b565b34801561034a57600080fd5b5061020161035936600461196e565b610a27565b34801561036a57600080fd5b5061019c61037936600461174d565b610a5f565b34801561038a57600080fd5b50610201610399366004611894565b610a6a565b3480156103aa57600080fd5b5061014f6103b93660046119ea565b6001600160a01b03918216600090815260056020908152604080832093909416825291909152205460ff1690565b3480156103f357600080fd5b506102016104023660046118e2565b610ac3565b60006001600160e01b031982166380ac58cd60e01b148061043857506001600160e01b03198216635b5e139f60e01b145b8061045357506301ffc9a760e01b6001600160e01b03198316145b92915050565b6000610464600b5490565b905090565b60606000805461047890611a1d565b80601f01602080910402602001604051908101604052809291908181526020018280546104a490611a1d565b80156104f15780601f106104c6576101008083540402835291602001916104f1565b820191906000526020600020905b8154815290600101906020018083116104d457829003601f168201915b5050505050905090565b600061050682610b5e565b61056c5760405162461bcd60e51b815260206004820152602c60248201527f4552433732313a20617070726f76656420717565727920666f72206e6f6e657860448201526b34b9ba32b73a103a37b5b2b760a11b60648201526084015b60405180910390fd5b506000908152600460205260409020546001600160a01b031690565b6000610593826107fe565b9050806001600160a01b0316836001600160a01b031614156106015760405162461bcd60e51b815260206004820152602160248201527f4552433732313a20617070726f76616c20746f2063757272656e74206f776e656044820152603960f91b6064820152608401610563565b336001600160a01b038216148061061d575061061d81336103b9565b61068f5760405162461bcd60e51b815260206004820152603860248201527f4552433732313a20617070726f76652063616c6c6572206973206e6f74206f7760448201527f6e6572206e6f7220617070726f76656420666f7220616c6c00000000000000006064820152608401610563565b6106998383610b7b565b505050565b6106a83382610be9565b6106c45760405162461bcd60e51b815260040161056390611a58565b610699838383610cd3565b61069983838360405180602001604052806000815250610a27565b6000600a826040516106fc9190611aa9565b9081526040519081900360200190205460ff16156107525760405162461bcd60e51b81526020600482015260136024820152724e465420616c7265616479204d696e7465642160681b6044820152606401610563565b6008543410156107965760405162461bcd60e51b815260206004820152600f60248201526e4e65656420746f205061792075702160881b6044820152606401610563565b60006107a1600b5490565b90506107b1600b80546001019055565b6001600a846040516107c39190611aa9565b908152604051908190036020019020805491151560ff199092169190911790556107ed8482610e6f565b6107f78184610fa2565b9392505050565b6000818152600260205260408120546001600160a01b0316806104535760405162461bcd60e51b815260206004820152602960248201527f4552433732313a206f776e657220717565727920666f72206e6f6e657869737460448201526832b73a103a37b5b2b760b91b6064820152608401610563565b60006001600160a01b0382166108e05760405162461bcd60e51b815260206004820152602a60248201527f4552433732313a2062616c616e636520717565727920666f7220746865207a65604482015269726f206164647265737360b01b6064820152608401610563565b506001600160a01b031660009081526003602052604090205490565b6007546001600160a01b031633146109265760405162461bcd60e51b815260040161056390611ac5565b610930600061102d565b565b60606001805461047890611a1d565b6000600a826040516109539190611aa9565b9081526040519081900360200190205460ff1692915050565b61097733838361107f565b5050565b6009818154811061098b57600080fd5b9060005260206000200160009150905080546109a690611a1d565b80601f01602080910402602001604051908101604052809291908181526020018280546109d290611a1d565b8015610a1f5780601f106109f457610100808354040283529160200191610a1f565b820191906000526020600020905b815481529060010190602001808311610a0257829003601f168201915b505050505081565b610a313383610be9565b610a4d5760405162461bcd60e51b815260040161056390611a58565b610a598484848461114e565b50505050565b606061045382611181565b6007546001600160a01b03163314610a945760405162461bcd60e51b815260040161056390611ac5565b6000610a9f600b5490565b9050610aaf600b80546001019055565b610ab983826112e3565b6106998183610fa2565b6007546001600160a01b03163314610aed5760405162461bcd60e51b815260040161056390611ac5565b6001600160a01b038116610b525760405162461bcd60e51b815260206004820152602660248201527f4f776e61626c653a206e6577206f776e657220697320746865207a65726f206160448201526564647265737360d01b6064820152608401610563565b610b5b8161102d565b50565b6000908152600260205260409020546001600160a01b0316151590565b600081815260046020526040902080546001600160a01b0319166001600160a01b0384169081179091558190610bb0826107fe565b6001600160a01b03167f8c5be1e5ebec7d5bd14f71427d1e84f3dd0314c0f7b2291e5b200ac8c7c3b92560405160405180910390a45050565b6000610bf482610b5e565b610c555760405162461bcd60e51b815260206004820152602c60248201527f4552433732313a206f70657261746f7220717565727920666f72206e6f6e657860448201526b34b9ba32b73a103a37b5b2b760a11b6064820152608401610563565b6000610c60836107fe565b9050806001600160a01b0316846001600160a01b03161480610c9b5750836001600160a01b0316610c90846104fb565b6001600160a01b0316145b80610ccb57506001600160a01b0380821660009081526005602090815260408083209388168352929052205460ff165b949350505050565b826001600160a01b0316610ce6826107fe565b6001600160a01b031614610d4a5760405162461bcd60e51b815260206004820152602560248201527f4552433732313a207472616e736665722066726f6d20696e636f72726563742060448201526437bbb732b960d91b6064820152608401610563565b6001600160a01b038216610dac5760405162461bcd60e51b8152602060048201526024808201527f4552433732313a207472616e7366657220746f20746865207a65726f206164646044820152637265737360e01b6064820152608401610563565b610db7600082610b7b565b6001600160a01b0383166000908152600360205260408120805460019290610de0908490611b10565b90915550506001600160a01b0382166000908152600360205260408120805460019290610e0e908490611b27565b909155505060008181526002602052604080822080546001600160a01b0319166001600160a01b0386811691821790925591518493918716917fddf252ad1be2c89b69c2b068fc378daa952ba7f163c4a11628f55a4df523b3ef91a4505050565b6001600160a01b038216610ec55760405162461bcd60e51b815260206004820181905260248201527f4552433732313a206d696e7420746f20746865207a65726f20616464726573736044820152606401610563565b610ece81610b5e565b15610f1b5760405162461bcd60e51b815260206004820152601c60248201527f4552433732313a20746f6b656e20616c7265616479206d696e746564000000006044820152606401610563565b6001600160a01b0382166000908152600360205260408120805460019290610f44908490611b27565b909155505060008181526002602052604080822080546001600160a01b0319166001600160a01b03861690811790915590518392907fddf252ad1be2c89b69c2b068fc378daa952ba7f163c4a11628f55a4df523b3ef908290a45050565b610fab82610b5e565b61100e5760405162461bcd60e51b815260206004820152602e60248201527f45524337323155524953746f726167653a2055524920736574206f66206e6f6e60448201526d32bc34b9ba32b73a103a37b5b2b760911b6064820152608401610563565b6000828152600660209081526040909120825161069992840190611616565b600780546001600160a01b038381166001600160a01b0319831681179093556040519116919082907f8be0079c531659141344cd1fd0a4f28419497f9722a3daafe3b4186f6b6457e090600090a35050565b816001600160a01b0316836001600160a01b031614156110e15760405162461bcd60e51b815260206004820152601960248201527f4552433732313a20617070726f766520746f2063616c6c6572000000000000006044820152606401610563565b6001600160a01b03838116600081815260056020908152604080832094871680845294825291829020805460ff191686151590811790915591519182527f17307eab39ab6107e8899845ad3d59bd9653f200f220920489ca2b5937696c31910160405180910390a3505050565b611159848484610cd3565b611165848484846112fd565b610a595760405162461bcd60e51b815260040161056390611b3f565b606061118c82610b5e565b6111f25760405162461bcd60e51b815260206004820152603160248201527f45524337323155524953746f726167653a2055524920717565727920666f72206044820152703737b732bc34b9ba32b73a103a37b5b2b760791b6064820152608401610563565b6000828152600660205260408120805461120b90611a1d565b80601f016020809104026020016040519081016040528092919081815260200182805461123790611a1d565b80156112845780601f1061125957610100808354040283529160200191611284565b820191906000526020600020905b81548152906001019060200180831161126757829003601f168201915b5050505050905060006112956113fb565b90508051600014156112a8575092915050565b8151156112da5780826040516020016112c2929190611b91565b60405160208183030381529060405292505050919050565b610ccb8461141b565b6109778282604051806020016040528060008152506114e5565b60006001600160a01b0384163b156113f057604051630a85bd0160e11b81526001600160a01b0385169063150b7a0290611341903390899088908890600401611bc0565b6020604051808303816000875af192505050801561137c575060408051601f3d908101601f1916820190925261137991810190611bfd565b60015b6113d6573d8080156113aa576040519150601f19603f3d011682016040523d82523d6000602084013e6113af565b606091505b5080516113ce5760405162461bcd60e51b815260040161056390611b3f565b805181602001fd5b6001600160e01b031916630a85bd0160e11b149050610ccb565b506001949350505050565b6060604051806080016040528060508152602001611c8a60509139905090565b606061142682610b5e565b61148a5760405162461bcd60e51b815260206004820152602f60248201527f4552433732314d657461646174613a2055524920717565727920666f72206e6f60448201526e3732bc34b9ba32b73a103a37b5b2b760891b6064820152608401610563565b60006114946113fb565b905060008151116114b457604051806020016040528060008152506107f7565b806114be84611518565b6040516020016114cf929190611b91565b6040516020818303038152906040529392505050565b6114ef8383610e6f565b6114fc60008484846112fd565b6106995760405162461bcd60e51b815260040161056390611b3f565b60608161153c5750506040805180820190915260018152600360fc1b602082015290565b8160005b8115611566578061155081611c1a565b915061155f9050600a83611c4b565b9150611540565b60008167ffffffffffffffff811115611581576115816117e8565b6040519080825280601f01601f1916602001820160405280156115ab576020820181803683370190505b5090505b8415610ccb576115c0600183611b10565b91506115cd600a86611c5f565b6115d8906030611b27565b60f81b8183815181106115ed576115ed611c73565b60200101906001600160f81b031916908160001a90535061160f600a86611c4b565b94506115af565b82805461162290611a1d565b90600052602060002090601f016020900481019282611644576000855561168a565b82601f1061165d57805160ff191683800117855561168a565b8280016001018555821561168a579182015b8281111561168a57825182559160200191906001019061166f565b5061169692915061169a565b5090565b5b80821115611696576000815560010161169b565b6001600160e01b031981168114610b5b57600080fd5b6000602082840312156116d757600080fd5b81356107f7816116af565b60005b838110156116fd5781810151838201526020016116e5565b83811115610a595750506000910152565b600081518084526117268160208601602086016116e2565b601f01601f19169290920160200192915050565b6020815260006107f7602083018461170e565b60006020828403121561175f57600080fd5b5035919050565b80356001600160a01b038116811461177d57600080fd5b919050565b6000806040838503121561179557600080fd5b61179e83611766565b946020939093013593505050565b6000806000606084860312156117c157600080fd5b6117ca84611766565b92506117d860208501611766565b9150604084013590509250925092565b634e487b7160e01b600052604160045260246000fd5b600067ffffffffffffffff80841115611819576118196117e8565b604051601f8501601f19908116603f01168101908282118183101715611841576118416117e8565b8160405280935085815286868601111561185a57600080fd5b858560208301376000602087830101525050509392505050565b600082601f83011261188557600080fd5b6107f7838335602085016117fe565b600080604083850312156118a757600080fd5b6118b083611766565b9150602083013567ffffffffffffffff8111156118cc57600080fd5b6118d885828601611874565b9150509250929050565b6000602082840312156118f457600080fd5b6107f782611766565b60006020828403121561190f57600080fd5b813567ffffffffffffffff81111561192657600080fd5b610ccb84828501611874565b6000806040838503121561194557600080fd5b61194e83611766565b91506020830135801515811461196357600080fd5b809150509250929050565b6000806000806080858703121561198457600080fd5b61198d85611766565b935061199b60208601611766565b925060408501359150606085013567ffffffffffffffff8111156119be57600080fd5b8501601f810187136119cf57600080fd5b6119de878235602084016117fe565b91505092959194509250565b600080604083850312156119fd57600080fd5b611a0683611766565b9150611a1460208401611766565b90509250929050565b600181811c90821680611a3157607f821691505b60208210811415611a5257634e487b7160e01b600052602260045260246000fd5b50919050565b60208082526031908201527f4552433732313a207472616e736665722063616c6c6572206973206e6f74206f6040820152701ddb995c881b9bdc88185c1c1c9bdd9959607a1b606082015260800190565b60008251611abb8184602087016116e2565b9190910192915050565b6020808252818101527f4f776e61626c653a2063616c6c6572206973206e6f7420746865206f776e6572604082015260600190565b634e487b7160e01b600052601160045260246000fd5b600082821015611b2257611b22611afa565b500390565b60008219821115611b3a57611b3a611afa565b500190565b60208082526032908201527f4552433732313a207472616e7366657220746f206e6f6e20455243373231526560408201527131b2b4bb32b91034b6b83632b6b2b73a32b960711b606082015260800190565b60008351611ba38184602088016116e2565b835190830190611bb78183602088016116e2565b01949350505050565b6001600160a01b0385811682528416602082015260408101839052608060608201819052600090611bf39083018461170e565b9695505050505050565b600060208284031215611c0f57600080fd5b81516107f7816116af565b6000600019821415611c2e57611c2e611afa565b5060010190565b634e487b7160e01b600052601260045260246000fd5b600082611c5a57611c5a611c35565b500490565b600082611c6e57611c6e611c35565b500690565b634e487b7160e01b600052603260045260246000fdfe68747470733a2f2f676174657761792e70696e6174612e636c6f75642f697066732f516d503942644d514b37436a346a484358434535453144354852733154797a70455633534a653868793339345177a2646970667358221220b2c8cfba15feaca9e6e649c30b0f4d9b1c559228b625e56ba314ba31c44d32a064736f6c634300080b0033",
  "immutableReferences": {},
  "source": "pragma solidity ^0.8.0;\n\n\nimport \"../Client/node_modules/@openzeppelin/contracts/token/ERC721/ERC721.sol\";\nimport \"../Client/node_modules/@openzeppelin/contracts/token/ERC721/extensions/ERC721URIStorage.sol\";\nimport \"../Client/node_modules/@openzeppelin/contracts/access/Ownable.sol\";\nimport \"../Client/node_modules/@openzeppelin/contracts/utils/Counters.sol\";\n\n\ncontract HortensiaNFT is ERC721, ERC721URIStorage, Ownable {\n    uint Devfee = 0.05 ether;\n    using Counters for Counters.Counter;\n    string[] public hortensias;\n    mapping(string => bool) hortensiasExists;\n\n    Counters.Counter private _tokenIdCounter;\n\n    constructor() ERC721(\"Hortensia\", \"HOR \") {\n\n    }\n\n    function _baseURI() internal pure override returns (string memory) {\n        return \"https://gateway.pinata.cloud/ipfs/QmP9BdMQK7Cj4jHCXCE5E1D5HRs1TyzpEV3SJe8hy394Qw\";\n    }\n\n    function safeMint(address to, string memory uri) public onlyOwner {\n        uint256 tokenId = _tokenIdCounter.current();\n        _tokenIdCounter.increment();\n        _safeMint(to, tokenId);\n        _setTokenURI(tokenId, uri);\n    }\n\n    // The following functions are overrides required by Solidity.\n\n    function _burn(uint256 tokenId) internal override(ERC721, ERC721URIStorage) {\n        super._burn(tokenId);\n    }\n\n    function tokenURI(uint256 tokenId)\n        public\n        view\n        override(ERC721, ERC721URIStorage)\n        returns (string memory)\n    {\n        return super.tokenURI(tokenId);\n    }\n    function isContentOwned(string memory uri) public view returns (bool){\n        return hortensiasExists[uri];\n    }\n\n    function paytoMint(address _recipient, string memory _metadataURI) public payable returns(uint256){\n        require(!(hortensiasExists[_metadataURI]),'NFT already Minted!');\n        require(msg.value >= Devfee, \"Need to Pay up!\");\n        uint _newItemID = _tokenIdCounter.current();\n        _tokenIdCounter.increment();\n        hortensiasExists[_metadataURI] = true;\n        _mint(_recipient, _newItemID);\n        _setTokenURI(_newItemID, _metadataURI);\n        return _newItemID;\n    }\n\n    function count() public view returns (uint256){\n        return( _tokenIdCounter.current());\n    }\n}",
  "sourcePath": "/Users/arnaudberger/hortensiq/contracts/HortensiaNFT.sol",
  "compiler": {
    "name": "solc",
    "version": "0.8.11+commit.d7f03943.Emscripten.clang"
  },
  "schemaVersion": "3.4.7",
  "updatedAt": "2022-04-25T21:58:58.303Z",
  "networkType": "ethereum",
  "devdoc": {
    "kind": "dev",
    "methods": {
      "approve(address,uint256)": {
        "details": "See {IERC721-approve}."
      },
      "balanceOf(address)": {
        "details": "See {IERC721-balanceOf}."
      },
      "getApproved(uint256)": {
        "details": "See {IERC721-getApproved}."
      },
      "isApprovedForAll(address,address)": {
        "details": "See {IERC721-isApprovedForAll}."
      },
      "name()": {
        "details": "See {IERC721Metadata-name}."
      },
      "owner()": {
        "details": "Returns the address of the current owner."
      },
      "ownerOf(uint256)": {
        "details": "See {IERC721-ownerOf}."
      },
      "renounceOwnership()": {
        "details": "Leaves the contract without owner. It will not be possible to call `onlyOwner` functions anymore. Can only be called by the current owner. NOTE: Renouncing ownership will leave the contract without an owner, thereby removing any functionality that is only available to the owner."
      },
      "safeTransferFrom(address,address,uint256)": {
        "details": "See {IERC721-safeTransferFrom}."
      },
      "safeTransferFrom(address,address,uint256,bytes)": {
        "details": "See {IERC721-safeTransferFrom}."
      },
      "setApprovalForAll(address,bool)": {
        "details": "See {IERC721-setApprovalForAll}."
      },
      "supportsInterface(bytes4)": {
        "details": "See {IERC165-supportsInterface}."
      },
      "symbol()": {
        "details": "See {IERC721Metadata-symbol}."
      },
      "transferFrom(address,address,uint256)": {
        "details": "See {IERC721-transferFrom}."
      },
      "transferOwnership(address)": {
        "details": "Transfers ownership of the contract to a new account (`newOwner`). Can only be called by the current owner."
      }
    },
    "version": 1
  },
  "userdoc": {
    "kind": "user",
    "methods": {},
    "version": 1
  }
}